{
  "_format": "hh-sol-artifact-1",
  "contractName": "PasswordManager",
  "sourceName": "contracts/PasswordManager.sol",
  "abi": [
    {
      "inputs": [],
      "stateMutability": "nonpayable",
      "type": "constructor"
    },
    {
      "inputs": [
        {
          "internalType": "uint256",
          "name": "_id",
          "type": "uint256"
        }
      ],
      "name": "fetchId",
      "outputs": [
        {
          "internalType": "uint256",
          "name": "",
          "type": "uint256"
        }
      ],
      "stateMutability": "view",
      "type": "function"
    },
    {
      "inputs": [
        {
          "internalType": "uint256",
          "name": "_id",
          "type": "uint256"
        }
      ],
      "name": "fetchPassword",
      "outputs": [
        {
          "internalType": "string",
          "name": "",
          "type": "string"
        }
      ],
      "stateMutability": "view",
      "type": "function"
    },
    {
      "inputs": [
        {
          "internalType": "uint256",
          "name": "_id",
          "type": "uint256"
        }
      ],
      "name": "fetchTitle",
      "outputs": [
        {
          "internalType": "string",
          "name": "",
          "type": "string"
        }
      ],
      "stateMutability": "view",
      "type": "function"
    },
    {
      "inputs": [
        {
          "internalType": "uint256",
          "name": "_id",
          "type": "uint256"
        }
      ],
      "name": "fetchUsername",
      "outputs": [
        {
          "internalType": "string",
          "name": "",
          "type": "string"
        }
      ],
      "stateMutability": "view",
      "type": "function"
    },
    {
      "inputs": [],
      "name": "getNumberOfPasswords",
      "outputs": [
        {
          "internalType": "uint256",
          "name": "",
          "type": "uint256"
        }
      ],
      "stateMutability": "view",
      "type": "function"
    },
    {
      "inputs": [
        {
          "internalType": "address",
          "name": "_owner",
          "type": "address"
        }
      ],
      "name": "getPasswordsByOwner",
      "outputs": [
        {
          "internalType": "uint256[]",
          "name": "",
          "type": "uint256[]"
        }
      ],
      "stateMutability": "view",
      "type": "function"
    },
    {
      "inputs": [
        {
          "internalType": "uint256",
          "name": "",
          "type": "uint256"
        }
      ],
      "name": "passwordToOwner",
      "outputs": [
        {
          "internalType": "address",
          "name": "",
          "type": "address"
        }
      ],
      "stateMutability": "view",
      "type": "function"
    },
    {
      "inputs": [
        {
          "internalType": "string",
          "name": "_title",
          "type": "string"
        },
        {
          "internalType": "string",
          "name": "_username",
          "type": "string"
        },
        {
          "internalType": "string",
          "name": "_password",
          "type": "string"
        }
      ],
      "name": "setPassword",
      "outputs": [],
      "stateMutability": "nonpayable",
      "type": "function"
    }
  ],
  "bytecode": "0x60806040523480156200001157600080fd5b50620000416040518060600160405280602e8152602001620014e1602e91396200019c60201b620008381760201c565b60006040518060800160405280600081526020016040518060400160405280600c81526020017f496e697469616c5469746c65000000000000000000000000000000000000000081525081526020016040518060400160405280600f81526020017f496e697469616c557365726e616d65000000000000000000000000000000000081525081526020016040518060400160405280600f81526020017f496e697469616c50617373776f7264000000000000000000000000000000000081525081525090806001815401808255809150506001900390600052602060002090600402016000909190919091506000820151816000015560208201518160010190805190602001906200015592919062000268565b5060408201518160020190805190602001906200017492919062000268565b5060608201518160030190805190602001906200019392919062000268565b50505062000445565b6200023c81604051602401620001b3919062000359565b6040516020818303038152906040527f41304fac000000000000000000000000000000000000000000000000000000007bffffffffffffffffffffffffffffffffffffffffffffffffffffffff19166020820180517bffffffffffffffffffffffffffffffffffffffffffffffffffffffff83818316178352505050506200023f60201b60201c565b50565b60008151905060006a636f6e736f6c652e6c6f679050602083016000808483855afa5050505050565b8280546200027690620003cf565b90600052602060002090601f0160209004810192826200029a5760008555620002e6565b82601f10620002b557805160ff1916838001178555620002e6565b82800160010185558215620002e6579182015b82811115620002e5578251825591602001919060010190620002c8565b5b509050620002f59190620002f9565b5090565b5b8082111562000314576000816000905550600101620002fa565b5090565b600062000325826200037d565b62000331818562000388565b93506200034381856020860162000399565b6200034e8162000434565b840191505092915050565b6000602082019050818103600083015262000375818462000318565b905092915050565b600081519050919050565b600082825260208201905092915050565b60005b83811015620003b95780820151818401526020810190506200039c565b83811115620003c9576000848401525b50505050565b60006002820490506001821680620003e857607f821691505b60208210811415620003ff57620003fe62000405565b5b50919050565b7f4e487b7100000000000000000000000000000000000000000000000000000000600052602260045260246000fd5b6000601f19601f8301169050919050565b61108c80620004556000396000f3fe608060405234801561001057600080fd5b50600436106100885760003560e01c80639ebf3e211161005b5780639ebf3e2114610127578063a99f848d14610157578063e42b33e014610187578063f0f8b260146101b757610088565b8063288899741461008d57806340cec9c1146100a957806376bc3f80146100d957806390f89c12146100f7575b600080fd5b6100a760048036038101906100a29190610b1f565b6101e7565b005b6100c360048036038101906100be9190610bb6565b610370565b6040516100d09190610cf8565b60405180910390f35b6100e161044d565b6040516100ee9190610d66565b60405180910390f35b610111600480360381019061010c9190610bb6565b610459565b60405161011e9190610d66565b60405180910390f35b610141600480360381019061013c9190610bb6565b6104ad565b60405161014e9190610cf8565b60405180910390f35b610171600480360381019061016c9190610bb6565b61058a565b60405161017e9190610cf8565b60405180910390f35b6101a1600480360381019061019c9190610bb6565b610667565b6040516101ae9190610cbb565b60405180910390f35b6101d160048036038101906101cc9190610af6565b61069a565b6040516101de9190610cd6565b60405180910390f35b6101f28383836108d1565b6101fa610999565b600160008054905061020c9190610e2c565b81600001818152505033600160008360000151815260200190815260200160002060006101000a81548173ffffffffffffffffffffffffffffffffffffffff021916908373ffffffffffffffffffffffffffffffffffffffff160217905550600260003373ffffffffffffffffffffffffffffffffffffffff1673ffffffffffffffffffffffffffffffffffffffff16815260200190815260200160002060008154809291906102bb90610f41565b9190505550838160200181905250828160400181905250818160600181905250600081908060018154018082558091505060019003906000526020600020906004020160009091909190915060008201518160000155602082015181600101908051906020019061032d9291906109c1565b50604082015181600201908051906020019061034a9291906109c1565b5060608201518160030190805190602001906103679291906109c1565b50505050505050565b6060600082815481106103ac577f4e487b7100000000000000000000000000000000000000000000000000000000600052603260045260246000fd5b906000526020600020906004020160030180546103c890610ede565b80601f01602080910402602001604051908101604052809291908181526020018280546103f490610ede565b80156104415780601f1061041657610100808354040283529160200191610441565b820191906000526020600020905b81548152906001019060200180831161042457829003601f168201915b50505050509050919050565b60008080549050905090565b6000808281548110610494577f4e487b7100000000000000000000000000000000000000000000000000000000600052603260045260246000fd5b9060005260206000209060040201600001549050919050565b6060600082815481106104e9577f4e487b7100000000000000000000000000000000000000000000000000000000600052603260045260246000fd5b9060005260206000209060040201600201805461050590610ede565b80601f016020809104026020016040519081016040528092919081815260200182805461053190610ede565b801561057e5780601f106105535761010080835404028352916020019161057e565b820191906000526020600020905b81548152906001019060200180831161056157829003601f168201915b50505050509050919050565b6060600082815481106105c6577f4e487b7100000000000000000000000000000000000000000000000000000000600052603260045260246000fd5b906000526020600020906004020160010180546105e290610ede565b80601f016020809104026020016040519081016040528092919081815260200182805461060e90610ede565b801561065b5780601f106106305761010080835404028352916020019161065b565b820191906000526020600020905b81548152906001019060200180831161063e57829003601f168201915b50505050509050919050565b60016020528060005260406000206000915054906101000a900473ffffffffffffffffffffffffffffffffffffffff1681565b60606000600260008473ffffffffffffffffffffffffffffffffffffffff1673ffffffffffffffffffffffffffffffffffffffff1681526020019081526020016000205467ffffffffffffffff81111561071d577f4e487b7100000000000000000000000000000000000000000000000000000000600052604160045260246000fd5b60405190808252806020026020018201604052801561074b5781602001602082028036833780820191505090505b5090506000805b600080549050811161082d578473ffffffffffffffffffffffffffffffffffffffff166001600083815260200190815260200160002060009054906101000a900473ffffffffffffffffffffffffffffffffffffffff1673ffffffffffffffffffffffffffffffffffffffff16141561081a57808383815181106107ff577f4e487b7100000000000000000000000000000000000000000000000000000000600052603260045260246000fd5b602002602001018181525050818061081690610f41565b9250505b808061082590610f41565b915050610752565b508192505050919050565b6108ce8160405160240161084c9190610cf8565b6040516020818303038152906040527f41304fac000000000000000000000000000000000000000000000000000000007bffffffffffffffffffffffffffffffffffffffffffffffffffffffff19166020820180517bffffffffffffffffffffffffffffffffffffffffffffffffffffffff8381831617835250505050610970565b50565b61096b8383836040516024016108e993929190610d1a565b6040516020818303038152906040527f2ced7cef000000000000000000000000000000000000000000000000000000007bffffffffffffffffffffffffffffffffffffffffffffffffffffffff19166020820180517bffffffffffffffffffffffffffffffffffffffffffffffffffffffff8381831617835250505050610970565b505050565b60008151905060006a636f6e736f6c652e6c6f679050602083016000808483855afa5050505050565b6040518060800160405280600081526020016060815260200160608152602001606081525090565b8280546109cd90610ede565b90600052602060002090601f0160209004810192826109ef5760008555610a36565b82601f10610a0857805160ff1916838001178555610a36565b82800160010185558215610a36579182015b82811115610a35578251825591602001919060010190610a1a565b5b509050610a439190610a47565b5090565b5b80821115610a60576000816000905550600101610a48565b5090565b6000610a77610a7284610da6565b610d81565b905082815260208101848484011115610a8f57600080fd5b610a9a848285610e9c565b509392505050565b600081359050610ab181611028565b92915050565b600082601f830112610ac857600080fd5b8135610ad8848260208601610a64565b91505092915050565b600081359050610af08161103f565b92915050565b600060208284031215610b0857600080fd5b6000610b1684828501610aa2565b91505092915050565b600080600060608486031215610b3457600080fd5b600084013567ffffffffffffffff811115610b4e57600080fd5b610b5a86828701610ab7565b935050602084013567ffffffffffffffff811115610b7757600080fd5b610b8386828701610ab7565b925050604084013567ffffffffffffffff811115610ba057600080fd5b610bac86828701610ab7565b9150509250925092565b600060208284031215610bc857600080fd5b6000610bd684828501610ae1565b91505092915050565b6000610beb8383610c9d565b60208301905092915050565b610c0081610e60565b82525050565b6000610c1182610de7565b610c1b8185610e0a565b9350610c2683610dd7565b8060005b83811015610c57578151610c3e8882610bdf565b9750610c4983610dfd565b925050600181019050610c2a565b5085935050505092915050565b6000610c6f82610df2565b610c798185610e1b565b9350610c89818560208601610eab565b610c9281611017565b840191505092915050565b610ca681610e92565b82525050565b610cb581610e92565b82525050565b6000602082019050610cd06000830184610bf7565b92915050565b60006020820190508181036000830152610cf08184610c06565b905092915050565b60006020820190508181036000830152610d128184610c64565b905092915050565b60006060820190508181036000830152610d348186610c64565b90508181036020830152610d488185610c64565b90508181036040830152610d5c8184610c64565b9050949350505050565b6000602082019050610d7b6000830184610cac565b92915050565b6000610d8b610d9c565b9050610d978282610f10565b919050565b6000604051905090565b600067ffffffffffffffff821115610dc157610dc0610fe8565b5b610dca82611017565b9050602081019050919050565b6000819050602082019050919050565b600081519050919050565b600081519050919050565b6000602082019050919050565b600082825260208201905092915050565b600082825260208201905092915050565b6000610e3782610e92565b9150610e4283610e92565b925082821015610e5557610e54610f8a565b5b828203905092915050565b6000610e6b82610e72565b9050919050565b600073ffffffffffffffffffffffffffffffffffffffff82169050919050565b6000819050919050565b82818337600083830152505050565b60005b83811015610ec9578082015181840152602081019050610eae565b83811115610ed8576000848401525b50505050565b60006002820490506001821680610ef657607f821691505b60208210811415610f0a57610f09610fb9565b5b50919050565b610f1982611017565b810181811067ffffffffffffffff82111715610f3857610f37610fe8565b5b80604052505050565b6000610f4c82610e92565b91507fffffffffffffffffffffffffffffffffffffffffffffffffffffffffffffffff821415610f7f57610f7e610f8a565b5b600182019050919050565b7f4e487b7100000000000000000000000000000000000000000000000000000000600052601160045260246000fd5b7f4e487b7100000000000000000000000000000000000000000000000000000000600052602260045260246000fd5b7f4e487b7100000000000000000000000000000000000000000000000000000000600052604160045260246000fd5b6000601f19601f8301169050919050565b61103181610e60565b811461103c57600080fd5b50565b61104881610e92565b811461105357600080fd5b5056fea2646970667358221220f80dd7edf5d947021b43dd0b4fd52985cca8cd0645695b675136bdf1847797f764736f6c634300080300335375636365737366756c6c79206465706c6f7965642050617373776f72644d616e616765722d436f6e7472616374",
  "linkReferences": {},
  "deployedLinkReferences": {}
}