{
  "_format": "hh-sol-artifact-1",
  "contractName": "PasswordManager",
  "sourceName": "contracts/PasswordManager.sol",
  "abi": [
    {
      "inputs": [],
      "stateMutability": "nonpayable",
      "type": "constructor"
    },
    {
      "inputs": [
        {
          "internalType": "uint256",
          "name": "_id",
          "type": "uint256"
        }
      ],
      "name": "fetchPassword",
      "outputs": [
        {
          "internalType": "string",
          "name": "",
          "type": "string"
        }
      ],
      "stateMutability": "view",
      "type": "function"
    },
    {
      "inputs": [
        {
          "internalType": "uint256",
          "name": "_id",
          "type": "uint256"
        }
      ],
      "name": "fetchTitle",
      "outputs": [
        {
          "internalType": "string",
          "name": "",
          "type": "string"
        }
      ],
      "stateMutability": "view",
      "type": "function"
    },
    {
      "inputs": [
        {
          "internalType": "uint256",
          "name": "_id",
          "type": "uint256"
        }
      ],
      "name": "fetchUsername",
      "outputs": [
        {
          "internalType": "string",
          "name": "",
          "type": "string"
        }
      ],
      "stateMutability": "view",
      "type": "function"
    },
    {
      "inputs": [],
      "name": "getNumberOfPasswords",
      "outputs": [
        {
          "internalType": "uint256",
          "name": "",
          "type": "uint256"
        }
      ],
      "stateMutability": "view",
      "type": "function"
    },
    {
      "inputs": [
        {
          "internalType": "string",
          "name": "_title",
          "type": "string"
        },
        {
          "internalType": "string",
          "name": "_username",
          "type": "string"
        },
        {
          "internalType": "string",
          "name": "_password",
          "type": "string"
        }
      ],
      "name": "setPassword",
      "outputs": [],
      "stateMutability": "nonpayable",
      "type": "function"
    }
  ],
  "bytecode": "0x60806040523480156200001157600080fd5b50620000416040518060600160405280602e815260200162000f76602e91396200019c60201b620004a71760201c565b60006040518060800160405280600081526020016040518060400160405280600881526020017f46616365626f6f6b00000000000000000000000000000000000000000000000081525081526020016040518060400160405280600b81526020017f626c6140626c75622c646500000000000000000000000000000000000000000081525081526020016040518060400160405280600881526020017f466c61736368653100000000000000000000000000000000000000000000000081525081525090806001815401808255809150506001900390600052602060002090600402016000909190919091506000820151816000015560208201518160010190805190602001906200015592919062000268565b5060408201518160020190805190602001906200017492919062000268565b5060608201518160030190805190602001906200019392919062000268565b50505062000445565b6200023c81604051602401620001b3919062000359565b6040516020818303038152906040527f41304fac000000000000000000000000000000000000000000000000000000007bffffffffffffffffffffffffffffffffffffffffffffffffffffffff19166020820180517bffffffffffffffffffffffffffffffffffffffffffffffffffffffff83818316178352505050506200023f60201b60201c565b50565b60008151905060006a636f6e736f6c652e6c6f679050602083016000808483855afa5050505050565b8280546200027690620003cf565b90600052602060002090601f0160209004810192826200029a5760008555620002e6565b82601f10620002b557805160ff1916838001178555620002e6565b82800160010185558215620002e6579182015b82811115620002e5578251825591602001919060010190620002c8565b5b509050620002f59190620002f9565b5090565b5b8082111562000314576000816000905550600101620002fa565b5090565b600062000325826200037d565b62000331818562000388565b93506200034381856020860162000399565b6200034e8162000434565b840191505092915050565b6000602082019050818103600083015262000375818462000318565b905092915050565b600081519050919050565b600082825260208201905092915050565b60005b83811015620003b95780820151818401526020810190506200039c565b83811115620003c9576000848401525b50505050565b60006002820490506001821680620003e857607f821691505b60208210811415620003ff57620003fe62000405565b5b50919050565b7f4e487b7100000000000000000000000000000000000000000000000000000000600052602260045260246000fd5b6000601f19601f8301169050919050565b610b2180620004556000396000f3fe608060405234801561001057600080fd5b50600436106100575760003560e01c8063288899741461005c57806340cec9c11461007857806376bc3f80146100a85780639ebf3e21146100c6578063a99f848d146100f6575b600080fd5b61007660048036038101906100719190610750565b610126565b005b610092600480360381019061008d91906107e7565b610204565b60405161009f9190610858565b60405180910390f35b6100b06102e1565b6040516100bd91906108c6565b60405180910390f35b6100e060048036038101906100db91906107e7565b6102ed565b6040516100ed9190610858565b60405180910390f35b610110600480360381019061010b91906107e7565b6103ca565b60405161011d9190610858565b60405180910390f35b610131838383610540565b610139610608565b600160008054905061014b9190610953565b81600001818152505083816020018190525082816040018190525081816060018190525060008190806001815401808255809150506001900390600052602060002090600402016000909190919091506000820151816000015560208201518160010190805190602001906101c1929190610630565b5060408201518160020190805190602001906101de929190610630565b5060608201518160030190805190602001906101fb929190610630565b50505050505050565b606060008281548110610240577f4e487b7100000000000000000000000000000000000000000000000000000000600052603260045260246000fd5b9060005260206000209060040201600301805461025c906109d3565b80601f0160208091040260200160405190810160405280929190818152602001828054610288906109d3565b80156102d55780601f106102aa576101008083540402835291602001916102d5565b820191906000526020600020905b8154815290600101906020018083116102b857829003601f168201915b50505050509050919050565b60008080549050905090565b606060008281548110610329577f4e487b7100000000000000000000000000000000000000000000000000000000600052603260045260246000fd5b90600052602060002090600402016002018054610345906109d3565b80601f0160208091040260200160405190810160405280929190818152602001828054610371906109d3565b80156103be5780601f10610393576101008083540402835291602001916103be565b820191906000526020600020905b8154815290600101906020018083116103a157829003601f168201915b50505050509050919050565b606060008281548110610406577f4e487b7100000000000000000000000000000000000000000000000000000000600052603260045260246000fd5b90600052602060002090600402016001018054610422906109d3565b80601f016020809104026020016040519081016040528092919081815260200182805461044e906109d3565b801561049b5780601f106104705761010080835404028352916020019161049b565b820191906000526020600020905b81548152906001019060200180831161047e57829003601f168201915b50505050509050919050565b61053d816040516024016104bb9190610858565b6040516020818303038152906040527f41304fac000000000000000000000000000000000000000000000000000000007bffffffffffffffffffffffffffffffffffffffffffffffffffffffff19166020820180517bffffffffffffffffffffffffffffffffffffffffffffffffffffffff83818316178352505050506105df565b50565b6105da8383836040516024016105589392919061087a565b6040516020818303038152906040527f2ced7cef000000000000000000000000000000000000000000000000000000007bffffffffffffffffffffffffffffffffffffffffffffffffffffffff19166020820180517bffffffffffffffffffffffffffffffffffffffffffffffffffffffff83818316178352505050506105df565b505050565b60008151905060006a636f6e736f6c652e6c6f679050602083016000808483855afa5050505050565b6040518060800160405280600081526020016060815260200160608152602001606081525090565b82805461063c906109d3565b90600052602060002090601f01602090048101928261065e57600085556106a5565b82601f1061067757805160ff19168380011785556106a5565b828001600101855582156106a5579182015b828111156106a4578251825591602001919060010190610689565b5b5090506106b291906106b6565b5090565b5b808211156106cf5760008160009055506001016106b7565b5090565b60006106e66106e184610906565b6108e1565b9050828152602081018484840111156106fe57600080fd5b610709848285610991565b509392505050565b600082601f83011261072257600080fd5b81356107328482602086016106d3565b91505092915050565b60008135905061074a81610ad4565b92915050565b60008060006060848603121561076557600080fd5b600084013567ffffffffffffffff81111561077f57600080fd5b61078b86828701610711565b935050602084013567ffffffffffffffff8111156107a857600080fd5b6107b486828701610711565b925050604084013567ffffffffffffffff8111156107d157600080fd5b6107dd86828701610711565b9150509250925092565b6000602082840312156107f957600080fd5b60006108078482850161073b565b91505092915050565b600061081b82610937565b6108258185610942565b93506108358185602086016109a0565b61083e81610ac3565b840191505092915050565b61085281610987565b82525050565b600060208201905081810360008301526108728184610810565b905092915050565b600060608201905081810360008301526108948186610810565b905081810360208301526108a88185610810565b905081810360408301526108bc8184610810565b9050949350505050565b60006020820190506108db6000830184610849565b92915050565b60006108eb6108fc565b90506108f78282610a05565b919050565b6000604051905090565b600067ffffffffffffffff82111561092157610920610a94565b5b61092a82610ac3565b9050602081019050919050565b600081519050919050565b600082825260208201905092915050565b600061095e82610987565b915061096983610987565b92508282101561097c5761097b610a36565b5b828203905092915050565b6000819050919050565b82818337600083830152505050565b60005b838110156109be5780820151818401526020810190506109a3565b838111156109cd576000848401525b50505050565b600060028204905060018216806109eb57607f821691505b602082108114156109ff576109fe610a65565b5b50919050565b610a0e82610ac3565b810181811067ffffffffffffffff82111715610a2d57610a2c610a94565b5b80604052505050565b7f4e487b7100000000000000000000000000000000000000000000000000000000600052601160045260246000fd5b7f4e487b7100000000000000000000000000000000000000000000000000000000600052602260045260246000fd5b7f4e487b7100000000000000000000000000000000000000000000000000000000600052604160045260246000fd5b6000601f19601f8301169050919050565b610add81610987565b8114610ae857600080fd5b5056fea2646970667358221220b6dbcc0ff66426651d75643a61d3e88f4c82242ce2cdb2bf1bf9ed48093bea3064736f6c634300080300335375636365737366756c6c79206465706c6f7965642050617373776f72644d616e616765722d436f6e7472616374",
  "linkReferences": {},
  "deployedLinkReferences": {}
}