{
  "_format": "hh-sol-artifact-1",
  "contractName": "PasswordManager",
  "sourceName": "contracts/PasswordManager.sol",
  "abi": [
    {
      "inputs": [],
      "stateMutability": "nonpayable",
      "type": "constructor"
    },
    {
      "inputs": [
        {
          "internalType": "uint256",
          "name": "_id",
          "type": "uint256"
        }
      ],
      "name": "fetchPassword",
      "outputs": [
        {
          "internalType": "string",
          "name": "",
          "type": "string"
        }
      ],
      "stateMutability": "view",
      "type": "function"
    },
    {
      "inputs": [],
      "name": "getNumberOfPasswords",
      "outputs": [
        {
          "internalType": "uint256",
          "name": "",
          "type": "uint256"
        }
      ],
      "stateMutability": "view",
      "type": "function"
    },
    {
      "inputs": [
        {
          "internalType": "string",
          "name": "_password",
          "type": "string"
        }
      ],
      "name": "setPassword",
      "outputs": [],
      "stateMutability": "nonpayable",
      "type": "function"
    }
  ],
  "bytecode": "0x60806040523480156200001157600080fd5b50620000416040518060600160405280602e815260200162000c62602e91396200019c60201b620002d41760201c565b60006040518060800160405280600081526020016040518060400160405280600881526020017f46616365626f6f6b00000000000000000000000000000000000000000000000081525081526020016040518060400160405280600b81526020017f626c6140626c75622c646500000000000000000000000000000000000000000081525081526020016040518060400160405280600881526020017f466c61736368653100000000000000000000000000000000000000000000000081525081525090806001815401808255809150506001900390600052602060002090600402016000909190919091506000820151816000015560208201518160010190805190602001906200015592919062000268565b5060408201518160020190805190602001906200017492919062000268565b5060608201518160030190805190602001906200019392919062000268565b50505062000445565b6200023c81604051602401620001b3919062000359565b6040516020818303038152906040527f41304fac000000000000000000000000000000000000000000000000000000007bffffffffffffffffffffffffffffffffffffffffffffffffffffffff19166020820180517bffffffffffffffffffffffffffffffffffffffffffffffffffffffff83818316178352505050506200023f60201b60201c565b50565b60008151905060006a636f6e736f6c652e6c6f679050602083016000808483855afa5050505050565b8280546200027690620003cf565b90600052602060002090601f0160209004810192826200029a5760008555620002e6565b82601f10620002b557805160ff1916838001178555620002e6565b82800160010185558215620002e6579182015b82811115620002e5578251825591602001919060010190620002c8565b5b509050620002f59190620002f9565b5090565b5b8082111562000314576000816000905550600101620002fa565b5090565b600062000325826200037d565b62000331818562000388565b93506200034381856020860162000399565b6200034e8162000434565b840191505092915050565b6000602082019050818103600083015262000375818462000318565b905092915050565b600081519050919050565b600082825260208201905092915050565b60005b83811015620003b95780820151818401526020810190506200039c565b83811115620003c9576000848401525b50505050565b60006002820490506001821680620003e857607f821691505b60208210811415620003ff57620003fe62000405565b5b50919050565b7f4e487b7100000000000000000000000000000000000000000000000000000000600052602260045260246000fd5b6000601f19601f8301169050919050565b61080d80620004556000396000f3fe608060405234801561001057600080fd5b50600436106100415760003560e01c8063290bb4531461004657806340cec9c11461006257806376bc3f8014610092575b600080fd5b610060600480360381019061005b91906104de565b6100b0565b005b61007c6004803603810190610077919061051f565b6101eb565b6040516100899190610590565b60405180910390f35b61009a6102c8565b6040516100a791906105b2565b60405180910390f35b6100b8610396565b60016000805490506100ca919061063f565b8160000181815250506040518060400160405280600881526020017f46616365626f6f6b00000000000000000000000000000000000000000000000081525081602001819052506040518060400160405280601381526020017f4c6f63616c6572486f737440313333372e646500000000000000000000000000815250816040018190525081816060018190525060008190806001815401808255809150506001900390600052602060002090600402016000909190919091506000820151816000015560208201518160010190805190602001906101aa9291906103be565b5060408201518160020190805190602001906101c79291906103be565b5060608201518160030190805190602001906101e49291906103be565b5050505050565b606060008281548110610227577f4e487b7100000000000000000000000000000000000000000000000000000000600052603260045260246000fd5b90600052602060002090600402016003018054610243906106bf565b80601f016020809104026020016040519081016040528092919081815260200182805461026f906106bf565b80156102bc5780601f10610291576101008083540402835291602001916102bc565b820191906000526020600020905b81548152906001019060200180831161029f57829003601f168201915b50505050509050919050565b60008080549050905090565b61036a816040516024016102e89190610590565b6040516020818303038152906040527f41304fac000000000000000000000000000000000000000000000000000000007bffffffffffffffffffffffffffffffffffffffffffffffffffffffff19166020820180517bffffffffffffffffffffffffffffffffffffffffffffffffffffffff838183161783525050505061036d565b50565b60008151905060006a636f6e736f6c652e6c6f679050602083016000808483855afa5050505050565b6040518060800160405280600081526020016060815260200160608152602001606081525090565b8280546103ca906106bf565b90600052602060002090601f0160209004810192826103ec5760008555610433565b82601f1061040557805160ff1916838001178555610433565b82800160010185558215610433579182015b82811115610432578251825591602001919060010190610417565b5b5090506104409190610444565b5090565b5b8082111561045d576000816000905550600101610445565b5090565b600061047461046f846105f2565b6105cd565b90508281526020810184848401111561048c57600080fd5b61049784828561067d565b509392505050565b600082601f8301126104b057600080fd5b81356104c0848260208601610461565b91505092915050565b6000813590506104d8816107c0565b92915050565b6000602082840312156104f057600080fd5b600082013567ffffffffffffffff81111561050a57600080fd5b6105168482850161049f565b91505092915050565b60006020828403121561053157600080fd5b600061053f848285016104c9565b91505092915050565b600061055382610623565b61055d818561062e565b935061056d81856020860161068c565b610576816107af565b840191505092915050565b61058a81610673565b82525050565b600060208201905081810360008301526105aa8184610548565b905092915050565b60006020820190506105c76000830184610581565b92915050565b60006105d76105e8565b90506105e382826106f1565b919050565b6000604051905090565b600067ffffffffffffffff82111561060d5761060c610780565b5b610616826107af565b9050602081019050919050565b600081519050919050565b600082825260208201905092915050565b600061064a82610673565b915061065583610673565b92508282101561066857610667610722565b5b828203905092915050565b6000819050919050565b82818337600083830152505050565b60005b838110156106aa57808201518184015260208101905061068f565b838111156106b9576000848401525b50505050565b600060028204905060018216806106d757607f821691505b602082108114156106eb576106ea610751565b5b50919050565b6106fa826107af565b810181811067ffffffffffffffff8211171561071957610718610780565b5b80604052505050565b7f4e487b7100000000000000000000000000000000000000000000000000000000600052601160045260246000fd5b7f4e487b7100000000000000000000000000000000000000000000000000000000600052602260045260246000fd5b7f4e487b7100000000000000000000000000000000000000000000000000000000600052604160045260246000fd5b6000601f19601f8301169050919050565b6107c981610673565b81146107d457600080fd5b5056fea2646970667358221220a5fcd3a79558fc6cc0a75a8790781c62655dfe6e1ac3ca39b94bb48f93ffe92b64736f6c634300080300335375636365737366756c6c79206465706c6f7965642050617373776f72644d616e616765722d436f6e7472616374",
  "linkReferences": {},
  "deployedLinkReferences": {}
}